{
  "contractName": "Election",
  "abi": [
    {
      "inputs": [],
      "payable": false,
      "stateMutability": "nonpayable",
      "type": "constructor"
    },
    {
      "constant": true,
      "inputs": [
        {
          "internalType": "uint256",
          "name": "",
          "type": "uint256"
        }
      ],
      "name": "candidates",
      "outputs": [
        {
          "internalType": "uint256",
          "name": "id",
          "type": "uint256"
        },
        {
          "internalType": "string",
          "name": "name",
          "type": "string"
        },
        {
          "internalType": "uint256",
          "name": "voteCount",
          "type": "uint256"
        }
      ],
      "payable": false,
      "stateMutability": "view",
      "type": "function"
    },
    {
      "constant": true,
      "inputs": [],
      "name": "candidatesCount",
      "outputs": [
        {
          "internalType": "uint256",
          "name": "",
          "type": "uint256"
        }
      ],
      "payable": false,
      "stateMutability": "view",
      "type": "function"
    },
    {
      "constant": true,
      "inputs": [
        {
          "internalType": "address",
          "name": "",
          "type": "address"
        }
      ],
      "name": "votes",
      "outputs": [
        {
          "internalType": "bool",
          "name": "",
          "type": "bool"
        }
      ],
      "payable": false,
      "stateMutability": "view",
      "type": "function"
    },
    {
      "constant": false,
      "inputs": [
        {
          "internalType": "uint256",
          "name": "_candidatesId",
          "type": "uint256"
        }
      ],
      "name": "vote",
      "outputs": [],
      "payable": false,
      "stateMutability": "nonpayable",
      "type": "function"
    }
  ],
  "bytecode": "0x608060405234801561001057600080fd5b506100556040518060400160405280600b81526020017f43616e646964617465203100000000000000000000000000000000000000000081525061009e60201b60201c565b6100996040518060400160405280600b81526020017f43616e646964617465203200000000000000000000000000000000000000000081525061009e60201b60201c565b6101bf565b60026000815480929190600101919050555060405180606001604052806002548152602001828152602001600081525060016000600254815260200190815260200160002060008201518160000155602082015181600101908051906020019061010992919061011a565b506040820151816002015590505050565b828054600181600116156101000203166002900490600052602060002090601f016020900481019282601f1061015b57805160ff1916838001178555610189565b82800160010185558215610189579182015b8281111561018857825182559160200191906001019061016d565b5b509050610196919061019a565b5090565b6101bc91905b808211156101b85760008160009055506001016101a0565b5090565b90565b61034b806101ce6000396000f3fe608060405234801561001057600080fd5b506004361061004c5760003560e01c80630121b93f146100515780632d35a8a21461007f5780633477ee2e1461009d578063d8bff5a514610152575b600080fd5b61007d6004803603602081101561006757600080fd5b81019080803590602001909291905050506101ae565b005b61008761022e565b6040518082815260200191505060405180910390f35b6100c9600480360360208110156100b357600080fd5b8101908080359060200190929190505050610234565b6040518084815260200180602001838152602001828103825284818151815260200191508051906020019080838360005b838110156101155780820151818401526020810190506100fa565b50505050905090810190601f1680156101425780820380516001836020036101000a031916815260200191505b5094505050505060405180910390f35b6101946004803603602081101561016857600080fd5b81019080803573ffffffffffffffffffffffffffffffffffffffff1690602001909291905050506102f6565b604051808215151515815260200191505060405180910390f35b60016000803373ffffffffffffffffffffffffffffffffffffffff1673ffffffffffffffffffffffffffffffffffffffff16815260200190815260200160002060006101000a81548160ff021916908315150217905550600160008281526020019081526020016000206002016000815480929190600101919050555050565b60025481565b6001602052806000526040600020600091509050806000015490806001018054600181600116156101000203166002900480601f0160208091040260200160405190810160405280929190818152602001828054600181600116156101000203166002900480156102e65780601f106102bb576101008083540402835291602001916102e6565b820191906000526020600020905b8154815290600101906020018083116102c957829003601f168201915b5050505050908060020154905083565b60006020528060005260406000206000915054906101000a900460ff168156fea265627a7a72315820bfec7b30d9a9ae4f0349b06e5964ce2ec37896e0cc98f68269fd074591bc6c1464736f6c63430005100032",
  "source": "pragma solidity >=0.4.16 <0.9.0;\r\n\r\ncontract Election{\r\n    // Model a candidate\r\n    struct Candidate{\r\n        uint id;\r\n        string name;\r\n        uint voteCount;\r\n    }\r\n\r\n    //Store accounts that have votes\r\n    mapping(address => bool) public votes;\r\n    //Store Condidate\r\n    mapping(uint => Candidate) public candidates;\r\n\r\n    uint public candidatesCount;\r\n    //Constructor\r\n     constructor () public{\r\n       addCandidate(\"Candidate 1\");\r\n       addCandidate(\"Candidate 2\");\r\n    }\r\n\r\n    //Add Candidate Function\r\n    function addCandidate(string memory _name) private {\r\n        candidatesCount++;\r\n        candidates[candidatesCount] = Candidate(candidatesCount, _name, 0);\r\n    }\r\n\r\n    function vote(uint _candidatesId) public{\r\n        votes[msg.sender] = true;\r\n\r\n        candidates[_candidatesId].voteCount++;\r\n\r\n    }\r\n}",
  "sourcePath": "C:\\Users\\Mariam Naz\\Desktop\\code\\election-blockchain\\contracts\\Election.sol",
  "compiler": {
    "name": "solc",
    "version": "0.5.16+commit.9c3226ce.Emscripten.clang"
  },
  "schemaVersion": "3.4.3",
  "updatedAt": "2021-11-18T21:30:28.200Z",
  "networkType": "ethereum",
  "devdoc": {
    "methods": {}
  },
  "userdoc": {
    "methods": {}
  }
}